{
  "contractName": "TaskContract",
  "abi": [
    {
      "anonymous": false,
      "inputs": [
        {
          "indexed": false,
          "internalType": "uint256",
          "name": "id",
          "type": "uint256"
        },
        {
          "indexed": false,
          "internalType": "address",
          "name": "recipient",
          "type": "address"
        }
      ],
      "name": "TaskCreated",
      "type": "event"
    },
    {
      "anonymous": false,
      "inputs": [
        {
          "indexed": false,
          "internalType": "uint256",
          "name": "id",
          "type": "uint256"
        },
        {
          "indexed": false,
          "internalType": "bool",
          "name": "deleted",
          "type": "bool"
        }
      ],
      "name": "TaskDeleted",
      "type": "event"
    },
    {
      "anonymous": false,
      "inputs": [
        {
          "indexed": false,
          "internalType": "uint256",
          "name": "id",
          "type": "uint256"
        },
        {
          "indexed": false,
          "internalType": "address",
          "name": "recipient",
          "type": "address"
        }
      ],
      "name": "TaskUpdated",
      "type": "event"
    },
    {
      "inputs": [
        {
          "internalType": "string",
          "name": "_taskText",
          "type": "string"
        },
        {
          "internalType": "address",
          "name": "_ownerAddress",
          "type": "address"
        }
      ],
      "name": "addTask",
      "outputs": [],
      "stateMutability": "nonpayable",
      "type": "function"
    },
    {
      "inputs": [
        {
          "internalType": "uint256",
          "name": "_taskId",
          "type": "uint256"
        },
        {
          "internalType": "address",
          "name": "_ownerAddress",
          "type": "address"
        }
      ],
      "name": "toggleTodoStatus",
      "outputs": [],
      "stateMutability": "nonpayable",
      "type": "function"
    },
    {
      "inputs": [
        {
          "internalType": "uint256",
          "name": "_taskId",
          "type": "uint256"
        },
        {
          "internalType": "address",
          "name": "_ownerAddress",
          "type": "address"
        }
      ],
      "name": "deleteTask",
      "outputs": [],
      "stateMutability": "nonpayable",
      "type": "function"
    },
    {
      "inputs": [
        {
          "internalType": "uint256",
          "name": "_taskId",
          "type": "uint256"
        },
        {
          "internalType": "string",
          "name": "_taskText",
          "type": "string"
        },
        {
          "internalType": "address",
          "name": "_ownerAddress",
          "type": "address"
        }
      ],
      "name": "updateTask",
      "outputs": [],
      "stateMutability": "nonpayable",
      "type": "function"
    },
    {
      "inputs": [
        {
          "internalType": "address",
          "name": "_ownerAddress",
          "type": "address"
        }
      ],
      "name": "getUserTasks",
      "outputs": [
        {
          "components": [
            {
              "internalType": "uint256",
              "name": "id",
              "type": "uint256"
            },
            {
              "internalType": "string",
              "name": "taskText",
              "type": "string"
            },
            {
              "internalType": "address",
              "name": "ownerAddress",
              "type": "address"
            },
            {
              "internalType": "bool",
              "name": "completed",
              "type": "bool"
            },
            {
              "internalType": "bool",
              "name": "deleted",
              "type": "bool"
            }
          ],
          "internalType": "struct TaskContract.Task[]",
          "name": "",
          "type": "tuple[]"
        }
      ],
      "stateMutability": "view",
      "type": "function",
      "constant": true
    }
  ],
  "bytecode": "0x608060405234801561000f575f80fd5b506111dc8061001d5f395ff3fe608060405234801561000f575f80fd5b5060043610610055575f3560e01c806324ca448b146100595780632fd17fff1461007557806395d57660146100915780639f8d5aa1146100c1578063f0676d28146100dd575b5f80fd5b610073600480360381019061006e9190610a92565b6100f9565b005b61008f600480360381019061008a9190610afe565b6101cb565b005b6100ab60048036038101906100a69190610b3c565b6102a2565b6040516100b89190610d47565b60405180910390f35b6100db60048036038101906100d69190610afe565b6105f3565b005b6100f760048036038101906100f29190610d67565b6106d0565b005b8073ffffffffffffffffffffffffffffffffffffffff1660015f8581526020019081526020015f205f9054906101000a900473ffffffffffffffffffffffffffffffffffffffff1673ffffffffffffffffffffffffffffffffffffffff16036101c657815f84815481106101705761016f610dc1565b5b905f5260205f209060030201600101908161018b9190610fe8565b507fcc519c5bc5597226fee21f5251ade081c3d4cbb50396fac6447b7f495ded86da83826040516101bd9291906110d5565b60405180910390a15b505050565b8073ffffffffffffffffffffffffffffffffffffffff1660015f8481526020019081526020015f205f9054906101000a900473ffffffffffffffffffffffffffffffffffffffff1673ffffffffffffffffffffffffffffffffffffffff160361029e575f80838154811061024257610241610dc1565b5b905f5260205f20906003020160020160149054906101000a900460ff16905080155f848154811061027657610275610dc1565b5b905f5260205f20906003020160020160146101000a81548160ff021916908315150217905550505b5050565b60605f808054905067ffffffffffffffff8111156102c3576102c2610914565b5b6040519080825280602002602001820160405280156102fc57816020015b6102e9610873565b8152602001906001900390816102e15790505b5090505f805b5f80549050811015610539578473ffffffffffffffffffffffffffffffffffffffff1660015f8381526020019081526020015f205f9054906101000a900473ffffffffffffffffffffffffffffffffffffffff1673ffffffffffffffffffffffffffffffffffffffff161480156103a657505f818154811061038757610386610dc1565b5b905f5260205f20906003020160020160159054906101000a900460ff16155b15610526575f81815481106103be576103bd610dc1565b5b905f5260205f2090600302016040518060a00160405290815f82015481526020016001820180546103ee90610e1b565b80601f016020809104026020016040519081016040528092919081815260200182805461041a90610e1b565b80156104655780601f1061043c57610100808354040283529160200191610465565b820191905f5260205f20905b81548152906001019060200180831161044857829003601f168201915b50505050508152602001600282015f9054906101000a900473ffffffffffffffffffffffffffffffffffffffff1673ffffffffffffffffffffffffffffffffffffffff1673ffffffffffffffffffffffffffffffffffffffff1681526020016002820160149054906101000a900460ff161515151581526020016002820160159054906101000a900460ff16151515158152505083838151811061050c5761050b610dc1565b5b6020026020010181905250818061052290611129565b9250505b808061053190611129565b915050610302565b505f8167ffffffffffffffff81111561055557610554610914565b5b60405190808252806020026020018201604052801561058e57816020015b61057b610873565b8152602001906001900390816105735790505b5090505f5b828110156105e7578381815181106105ae576105ad610dc1565b5b60200260200101518282815181106105c9576105c8610dc1565b5b602002602001018190525080806105df90611129565b915050610593565b50809350505050919050565b8073ffffffffffffffffffffffffffffffffffffffff1660015f8481526020019081526020015f205f9054906101000a900473ffffffffffffffffffffffffffffffffffffffff1673ffffffffffffffffffffffffffffffffffffffff16036106cc5760015f838154811061066b5761066a610dc1565b5b905f5260205f20906003020160020160156101000a81548160ff0219169083151502179055507f572597a6891de3ffc5ddb25adeb4871a3bf451676410ca50eed9524c49bdc0e68260016040516106c392919061117f565b60405180910390a15b5050565b5f808054905090505f6040518060a001604052808381526020018581526020018473ffffffffffffffffffffffffffffffffffffffff1681526020015f151581526020015f1515815250908060018154018082558091505060019003905f5260205f2090600302015f909190919091505f820151815f0155602082015181600101908161075d9190610fe8565b506040820151816002015f6101000a81548173ffffffffffffffffffffffffffffffffffffffff021916908373ffffffffffffffffffffffffffffffffffffffff16021790555060608201518160020160146101000a81548160ff02191690831515021790555060808201518160020160156101000a81548160ff02191690831515021790555050508160015f8381526020019081526020015f205f6101000a81548173ffffffffffffffffffffffffffffffffffffffff021916908373ffffffffffffffffffffffffffffffffffffffff1602179055507fe9ee39160568153d230ca0e29961267415d513defbb7d3b21af0fe940e1ebd1581836040516108669291906110d5565b60405180910390a1505050565b6040518060a001604052805f8152602001606081526020015f73ffffffffffffffffffffffffffffffffffffffff1681526020015f151581526020015f151581525090565b5f604051905090565b5f80fd5b5f80fd5b5f819050919050565b6108db816108c9565b81146108e5575f80fd5b50565b5f813590506108f6816108d2565b92915050565b5f80fd5b5f80fd5b5f601f19601f8301169050919050565b7f4e487b71000000000000000000000000000000000000000000000000000000005f52604160045260245ffd5b61094a82610904565b810181811067ffffffffffffffff8211171561096957610968610914565b5b80604052505050565b5f61097b6108b8565b90506109878282610941565b919050565b5f67ffffffffffffffff8211156109a6576109a5610914565b5b6109af82610904565b9050602081019050919050565b828183375f83830152505050565b5f6109dc6109d78461098c565b610972565b9050828152602081018484840111156109f8576109f7610900565b5b610a038482856109bc565b509392505050565b5f82601f830112610a1f57610a1e6108fc565b5b8135610a2f8482602086016109ca565b91505092915050565b5f73ffffffffffffffffffffffffffffffffffffffff82169050919050565b5f610a6182610a38565b9050919050565b610a7181610a57565b8114610a7b575f80fd5b50565b5f81359050610a8c81610a68565b92915050565b5f805f60608486031215610aa957610aa86108c1565b5b5f610ab6868287016108e8565b935050602084013567ffffffffffffffff811115610ad757610ad66108c5565b5b610ae386828701610a0b565b9250506040610af486828701610a7e565b9150509250925092565b5f8060408385031215610b1457610b136108c1565b5b5f610b21858286016108e8565b9250506020610b3285828601610a7e565b9150509250929050565b5f60208284031215610b5157610b506108c1565b5b5f610b5e84828501610a7e565b91505092915050565b5f81519050919050565b5f82825260208201905092915050565b5f819050602082019050919050565b610b99816108c9565b82525050565b5f81519050919050565b5f82825260208201905092915050565b5f5b83811015610bd6578082015181840152602081019050610bbb565b5f8484015250505050565b5f610beb82610b9f565b610bf58185610ba9565b9350610c05818560208601610bb9565b610c0e81610904565b840191505092915050565b610c2281610a57565b82525050565b5f8115159050919050565b610c3c81610c28565b82525050565b5f60a083015f830151610c575f860182610b90565b5060208301518482036020860152610c6f8282610be1565b9150506040830151610c846040860182610c19565b506060830151610c976060860182610c33565b506080830151610caa6080860182610c33565b508091505092915050565b5f610cc08383610c42565b905092915050565b5f602082019050919050565b5f610cde82610b67565b610ce88185610b71565b935083602082028501610cfa85610b81565b805f5b85811015610d355784840389528151610d168582610cb5565b9450610d2183610cc8565b925060208a01995050600181019050610cfd565b50829750879550505050505092915050565b5f6020820190508181035f830152610d5f8184610cd4565b905092915050565b5f8060408385031215610d7d57610d7c6108c1565b5b5f83013567ffffffffffffffff811115610d9a57610d996108c5565b5b610da685828601610a0b565b9250506020610db785828601610a7e565b9150509250929050565b7f4e487b71000000000000000000000000000000000000000000000000000000005f52603260045260245ffd5b7f4e487b71000000000000000000000000000000000000000000000000000000005f52602260045260245ffd5b5f6002820490506001821680610e3257607f821691505b602082108103610e4557610e44610dee565b5b50919050565b5f819050815f5260205f209050919050565b5f6020601f8301049050919050565b5f82821b905092915050565b5f60088302610ea77fffffffffffffffffffffffffffffffffffffffffffffffffffffffffffffffff82610e6c565b610eb18683610e6c565b95508019841693508086168417925050509392505050565b5f819050919050565b5f610eec610ee7610ee2846108c9565b610ec9565b6108c9565b9050919050565b5f819050919050565b610f0583610ed2565b610f19610f1182610ef3565b848454610e78565b825550505050565b5f90565b610f2d610f21565b610f38818484610efc565b505050565b5b81811015610f5b57610f505f82610f25565b600181019050610f3e565b5050565b601f821115610fa057610f7181610e4b565b610f7a84610e5d565b81016020851015610f89578190505b610f9d610f9585610e5d565b830182610f3d565b50505b505050565b5f82821c905092915050565b5f610fc05f1984600802610fa5565b1980831691505092915050565b5f610fd88383610fb1565b9150826002028217905092915050565b610ff182610b9f565b67ffffffffffffffff81111561100a57611009610914565b5b6110148254610e1b565b61101f828285610f5f565b5f60209050601f831160018114611050575f841561103e578287015190505b6110488582610fcd565b8655506110af565b601f19841661105e86610e4b565b5f5b8281101561108557848901518255600182019150602085019450602081019050611060565b868310156110a2578489015161109e601f891682610fb1565b8355505b6001600288020188555050505b505050505050565b6110c0816108c9565b82525050565b6110cf81610a57565b82525050565b5f6040820190506110e85f8301856110b7565b6110f560208301846110c6565b9392505050565b7f4e487b71000000000000000000000000000000000000000000000000000000005f52601160045260245ffd5b5f611133826108c9565b91507fffffffffffffffffffffffffffffffffffffffffffffffffffffffffffffffff8203611165576111646110fc565b5b600182019050919050565b61117981610c28565b82525050565b5f6040820190506111925f8301856110b7565b61119f6020830184611170565b939250505056fea26469706673582212200a8d0fe74816a3340750215d6dc75ee04298fa1d520fe2bb345729ea6eece52564736f6c63430008150033",
  "immutableReferences": {},
  "source": "// SPDX-License-Identifier: MIT\npragma solidity >=0.4.22 <0.9.0;\n\ncontract TaskContract {\n    event TaskCreated(uint id, address recipient);\n    event TaskUpdated(uint id, address recipient);\n    event TaskDeleted(uint id, bool deleted);\n\n    struct Task {\n        uint id;\n        string taskText;\n        address ownerAddress;\n        bool completed;\n        bool deleted;\n    }\n\n    Task[] private tasks;\n\n    // Mapping from task index to owner address - allows efficient check whether task belongs to the caller\n    mapping(uint256 => address) taskIndexToOwnerAddressMap;\n\n\n    function addTask(string memory _taskText, address _ownerAddress) external {\n        uint curTaskId = tasks.length;\n        tasks.push(Task(curTaskId, _taskText, _ownerAddress, false, false));\n        taskIndexToOwnerAddressMap[curTaskId] = _ownerAddress; // Add mapping from task index to owner address\n        emit TaskCreated(curTaskId, _ownerAddress);\n    }\n\n    function toggleTodoStatus(uint _taskId, address _ownerAddress) external {\n        // Check if task at index _taskId belongs to the caller\n        if(taskIndexToOwnerAddressMap[_taskId] == _ownerAddress) {\n            bool completed = tasks[_taskId].completed;\n            tasks[_taskId].completed = !completed;\n        }\n    }\n\n    function deleteTask(uint _taskId, address _ownerAddress) external {\n        // Check if task at index _taskId belongs to the caller\n        if(taskIndexToOwnerAddressMap[_taskId] == _ownerAddress) {\n            tasks[_taskId].deleted = true;\n            emit TaskDeleted(_taskId, true);\n        }\n    }\n\n    function updateTask(uint _taskId, string memory _taskText, address _ownerAddress) external {\n        // Check if task at index _taskId belongs to the caller\n        if(taskIndexToOwnerAddressMap[_taskId] == _ownerAddress) {\n            tasks[_taskId].taskText = _taskText;\n            emit TaskUpdated(_taskId, _ownerAddress);\n        }\n    }\n\n    function getUserTasks(address _ownerAddress) external view returns (Task[] memory) {\n        Task[] memory temp = new Task[](tasks.length);\n        uint count = 0;\n        for (uint i = 0; i < tasks.length; i++) {\n            if (taskIndexToOwnerAddressMap[i] == _ownerAddress && !tasks[i].deleted) {\n                temp[count] = tasks[i];\n                count++;\n            }\n        }\n        Task[] memory userTasks = new Task[](count);\n        for (uint i = 0; i < count; i++) {\n            userTasks[i] = temp[i];\n        }\n        return userTasks;\n    }\n}",
  "sourcePath": "E:\\Development\\AI Blockchain ToDo\\App\\Backend\\Blockchain\\contracts\\TaskContract.sol",
  "compiler": {
    "name": "solc",
    "version": "0.8.21+commit.d9974bed.Emscripten.clang"
  },
  "schemaVersion": "3.4.16",
  "updatedAt": "2025-01-20T12:17:32.732Z",
  "networkType": "ethereum",
  "devdoc": {
    "kind": "dev",
    "methods": {},
    "version": 1
  },
  "userdoc": {
    "kind": "user",
    "methods": {},
    "version": 1
  }
}